{
  "contractName": "ProductRegistryNew",
  "abi": [
    {
      "inputs": [
        {
          "internalType": "string",
          "name": "_name",
          "type": "string"
        },
        {
          "internalType": "string",
          "name": "_manufacturer",
          "type": "string"
        },
        {
          "internalType": "string",
          "name": "_qrCode",
          "type": "string"
        }
      ],
      "name": "registerProduct",
      "outputs": [],
      "stateMutability": "nonpayable",
      "type": "function"
    },
    {
      "inputs": [
        {
          "internalType": "string",
          "name": "_qrCode",
          "type": "string"
        }
      ],
      "name": "verifyProduct",
      "outputs": [
        {
          "internalType": "bool",
          "name": "",
          "type": "bool"
        }
      ],
      "stateMutability": "nonpayable",
      "type": "function"
    },
    {
      "inputs": [
        {
          "internalType": "string",
          "name": "_qrCode",
          "type": "string"
        }
      ],
      "name": "markProductAsFake",
      "outputs": [],
      "stateMutability": "nonpayable",
      "type": "function"
    }
  ],
  "bytecode": "0x6080604052600a60015534801561001557600080fd5b50610de7806100256000396000f3fe608060405234801561001057600080fd5b50600436106100415760003560e01c80633406b7181461004657806371a3ac3a1461006257806392efc4531461007e575b600080fd5b610060600480360381019061005b9190610702565b6100ae565b005b61007c600480360381019061007791906107a9565b61022c565b005b610098600480360381019061009391906107a9565b6102cc565b6040516100a5919061080d565b60405180910390f35b60008351116100f2576040517f08c379a00000000000000000000000000000000000000000000000000000000081526004016100e990610885565b60405180910390fd5b6000825111610136576040517f08c379a000000000000000000000000000000000000000000000000000000000815260040161012d906108f1565b60405180910390fd5b600081511161017a576040517f08c379a00000000000000000000000000000000000000000000000000000000081526004016101719061095d565b60405180910390fd5b60006040518060800160405280858152602001848152602001838152602001600115158152509050806000836040516101b391906109ee565b908152602001604051809103902060008201518160000190816101d69190610c1b565b5060208201518160010190816101ec9190610c1b565b5060408201518160020190816102029190610c1b565b5060608201518160030160006101000a81548160ff02191690831515021790555090505050505050565b6000815111610270576040517f08c379a00000000000000000000000000000000000000000000000000000000081526004016102679061095d565b60405180910390fd5b6000808260405161028191906109ee565b9081526020016040518091039020905060008160000180546102a290610a34565b905011156102c85760008160030160006101000a81548160ff0219169083151502179055505b5050565b600080825111610311576040517f08c379a00000000000000000000000000000000000000000000000000000000081526004016103089061095d565b60405180910390fd5b600060015411610356576040517f08c379a000000000000000000000000000000000000000000000000000000000815260040161034d90610d39565b60405180910390fd5b6000808360405161036791906109ee565b908152602001604051809103902060405180608001604052908160008201805461039090610a34565b80601f01602080910402602001604051908101604052809291908181526020018280546103bc90610a34565b80156104095780601f106103de57610100808354040283529160200191610409565b820191906000526020600020905b8154815290600101906020018083116103ec57829003601f168201915b5050505050815260200160018201805461042290610a34565b80601f016020809104026020016040519081016040528092919081815260200182805461044e90610a34565b801561049b5780601f106104705761010080835404028352916020019161049b565b820191906000526020600020905b81548152906001019060200180831161047e57829003601f168201915b505050505081526020016002820180546104b490610a34565b80601f01602080910402602001604051908101604052809291908181526020018280546104e090610a34565b801561052d5780601f106105025761010080835404028352916020019161052d565b820191906000526020600020905b81548152906001019060200180831161051057829003601f168201915b505050505081526020016003820160009054906101000a900460ff1615151515815250509050600081600001515103610582576001600081548092919061057390610d88565b919050555060009150506105a3565b6001600081548092919061059590610d88565b919050555080606001519150505b919050565b6000604051905090565b600080fd5b600080fd5b600080fd5b600080fd5b6000601f19601f8301169050919050565b7f4e487b7100000000000000000000000000000000000000000000000000000000600052604160045260246000fd5b61060f826105c6565b810181811067ffffffffffffffff8211171561062e5761062d6105d7565b5b80604052505050565b60006106416105a8565b905061064d8282610606565b919050565b600067ffffffffffffffff82111561066d5761066c6105d7565b5b610676826105c6565b9050602081019050919050565b82818337600083830152505050565b60006106a56106a084610652565b610637565b9050828152602081018484840111156106c1576106c06105c1565b5b6106cc848285610683565b509392505050565b600082601f8301126106e9576106e86105bc565b5b81356106f9848260208601610692565b91505092915050565b60008060006060848603121561071b5761071a6105b2565b5b600084013567ffffffffffffffff811115610739576107386105b7565b5b610745868287016106d4565b935050602084013567ffffffffffffffff811115610766576107656105b7565b5b610772868287016106d4565b925050604084013567ffffffffffffffff811115610793576107926105b7565b5b61079f868287016106d4565b9150509250925092565b6000602082840312156107bf576107be6105b2565b5b600082013567ffffffffffffffff8111156107dd576107dc6105b7565b5b6107e9848285016106d4565b91505092915050565b60008115159050919050565b610807816107f2565b82525050565b600060208201905061082260008301846107fe565b92915050565b600082825260208201905092915050565b7f4e616d652063616e6e6f7420626520656d707479000000000000000000000000600082015250565b600061086f601483610828565b915061087a82610839565b602082019050919050565b6000602082019050818103600083015261089e81610862565b9050919050565b7f4d616e7566616374757265722063616e6e6f7420626520656d70747900000000600082015250565b60006108db601c83610828565b91506108e6826108a5565b602082019050919050565b6000602082019050818103600083015261090a816108ce565b9050919050565b7f515220636f64652063616e6e6f7420626520656d707479000000000000000000600082015250565b6000610947601783610828565b915061095282610911565b602082019050919050565b600060208201905081810360008301526109768161093a565b9050919050565b600081519050919050565b600081905092915050565b60005b838110156109b1578082015181840152602081019050610996565b60008484015250505050565b60006109c88261097d565b6109d28185610988565b93506109e2818560208601610993565b80840191505092915050565b60006109fa82846109bd565b915081905092915050565b7f4e487b7100000000000000000000000000000000000000000000000000000000600052602260045260246000fd5b60006002820490506001821680610a4c57607f821691505b602082108103610a5f57610a5e610a05565b5b50919050565b60008190508160005260206000209050919050565b60006020601f8301049050919050565b600082821b905092915050565b600060088302610ac77fffffffffffffffffffffffffffffffffffffffffffffffffffffffffffffffff82610a8a565b610ad18683610a8a565b95508019841693508086168417925050509392505050565b6000819050919050565b6000819050919050565b6000610b18610b13610b0e84610ae9565b610af3565b610ae9565b9050919050565b6000819050919050565b610b3283610afd565b610b46610b3e82610b1f565b848454610a97565b825550505050565b600090565b610b5b610b4e565b610b66818484610b29565b505050565b5b81811015610b8a57610b7f600082610b53565b600181019050610b6c565b5050565b601f821115610bcf57610ba081610a65565b610ba984610a7a565b81016020851015610bb8578190505b610bcc610bc485610a7a565b830182610b6b565b50505b505050565b600082821c905092915050565b6000610bf260001984600802610bd4565b1980831691505092915050565b6000610c0b8383610be1565b9150826002028217905092915050565b610c248261097d565b67ffffffffffffffff811115610c3d57610c3c6105d7565b5b610c478254610a34565b610c52828285610b8e565b600060209050601f831160018114610c855760008415610c73578287015190505b610c7d8582610bff565b865550610ce5565b601f198416610c9386610a65565b60005b82811015610cbb57848901518255600182019150602085019450602081019050610c96565b86831015610cd85784890151610cd4601f891682610be1565b8355505b6001600288020188555050505b505050505050565b7f436f756e746572206861732072656163686564207a65726f0000000000000000600082015250565b6000610d23601883610828565b9150610d2e82610ced565b602082019050919050565b60006020820190508181036000830152610d5281610d16565b9050919050565b7f4e487b7100000000000000000000000000000000000000000000000000000000600052601160045260246000fd5b6000610d9382610ae9565b915060008203610da657610da5610d59565b5b60018203905091905056fea2646970667358221220b636ac4ad7ff2529a1d2d82b78ea7c7f52e090d74a6752fc76d3e11107d1ca7664736f6c63430008130033",
  "immutableReferences": {},
  "source": "// SPDX-License-Identifier: GPL-3.0\r\n\r\npragma solidity ^0.8.0;\r\n\r\n/**\r\n * @title ProductRegistryNew\r\n * @dev Store & retrieve value in a variable\r\n * @custom:dev-run-script ./scripts/deploy_with_ethers.ts\r\n */\r\ncontract ProductRegistryNew {\r\n    struct Product {\r\n        string name;\r\n        string manufacturer;\r\n        string qrCode;\r\n        bool isAuthentic;\r\n    }\r\n\r\n    mapping(string => Product) private products;\r\n    uint private counter = 10;\r\n\r\n    function registerProduct(string memory _name, string memory _manufacturer, string memory _qrCode) public {\r\n        require(bytes(_name).length > 0, \"Name cannot be empty\");\r\n        require(bytes(_manufacturer).length > 0, \"Manufacturer cannot be empty\");\r\n        require(bytes(_qrCode).length > 0, \"QR code cannot be empty\");\r\n\r\n        Product memory product = Product({\r\n            name: _name,\r\n            manufacturer: _manufacturer,\r\n            qrCode: _qrCode,\r\n            isAuthentic: true\r\n        });\r\n\r\n        products[_qrCode] = product;\r\n    }\r\n\r\n    function verifyProduct(string memory _qrCode) public returns (bool) {\r\n        require(bytes(_qrCode).length > 0, \"QR code cannot be empty\");\r\n        require(counter > 0, \"Counter has reached zero\");\r\n\r\n        Product memory product = products[_qrCode];\r\n\r\n        if (bytes(product.name).length == 0) {\r\n            counter--;\r\n            return false;\r\n        }\r\n\r\n        counter--;\r\n        return product.isAuthentic;\r\n    }\r\n\r\n    function markProductAsFake(string memory _qrCode) public {\r\n        require(bytes(_qrCode).length > 0, \"QR code cannot be empty\");\r\n\r\n        Product storage product = products[_qrCode];\r\n\r\n        if (bytes(product.name).length > 0) {\r\n            product.isAuthentic = false;\r\n        }\r\n    }\r\n}\r\n",
  "sourcePath": "D:\\Chandigarh University\\Authentify\\Blockchain\\usingGanache\\contracts\\UpdateContract.sol",
  "compiler": {
    "name": "solc",
    "version": "0.8.19+commit.7dd6d404.Emscripten.clang"
  },
  "schemaVersion": "3.4.13",
  "updatedAt": "2023-04-29T15:13:59.087Z",
  "networkType": "ethereum",
  "devdoc": {
    "custom:dev-run-script": "./scripts/deploy_with_ethers.ts",
    "details": "Store & retrieve value in a variable",
    "kind": "dev",
    "methods": {},
    "title": "ProductRegistryNew",
    "version": 1
  },
  "userdoc": {
    "kind": "user",
    "methods": {},
    "version": 1
  }
}