{
  "contractName": "ProductRegistry",
  "abi": [
    {
      "inputs": [
        {
          "internalType": "string",
          "name": "_name",
          "type": "string"
        },
        {
          "internalType": "string",
          "name": "_manufacturer",
          "type": "string"
        },
        {
          "internalType": "string",
          "name": "_qrCode",
          "type": "string"
        }
      ],
      "name": "registerProduct",
      "outputs": [],
      "stateMutability": "nonpayable",
      "type": "function"
    },
    {
      "inputs": [
        {
          "internalType": "string",
          "name": "_qrCode",
          "type": "string"
        }
      ],
      "name": "verifyProduct",
      "outputs": [
        {
          "internalType": "bool",
          "name": "",
          "type": "bool"
        }
      ],
      "stateMutability": "view",
      "type": "function"
    },
    {
      "inputs": [
        {
          "internalType": "string",
          "name": "_qrCode",
          "type": "string"
        }
      ],
      "name": "markProductAsFake",
      "outputs": [],
      "stateMutability": "nonpayable",
      "type": "function"
    }
  ],
  "bytecode": "0x608060405234801561001057600080fd5b50610cae806100206000396000f3fe608060405234801561001057600080fd5b50600436106100415760003560e01c80633406b7181461004657806371a3ac3a1461006257806392efc4531461007e575b600080fd5b610060600480360381019061005b919061068d565b6100ae565b005b61007c60048036038101906100779190610734565b61022c565b005b61009860048036038101906100939190610734565b6102cc565b6040516100a59190610798565b60405180910390f35b60008351116100f2576040517f08c379a00000000000000000000000000000000000000000000000000000000081526004016100e990610810565b60405180910390fd5b6000825111610136576040517f08c379a000000000000000000000000000000000000000000000000000000000815260040161012d9061087c565b60405180910390fd5b600081511161017a576040517f08c379a0000000000000000000000000000000000000000000000000000000008152600401610171906108e8565b60405180910390fd5b60006040518060800160405280858152602001848152602001838152602001600115158152509050806000836040516101b39190610979565b908152602001604051809103902060008201518160000190816101d69190610ba6565b5060208201518160010190816101ec9190610ba6565b5060408201518160020190816102029190610ba6565b5060608201518160030160006101000a81548160ff02191690831515021790555090505050505050565b6000815111610270576040517f08c379a0000000000000000000000000000000000000000000000000000000008152600401610267906108e8565b60405180910390fd5b600080826040516102819190610979565b9081526020016040518091039020905060008160000180546102a2906109bf565b905011156102c85760008160030160006101000a81548160ff0219169083151502179055505b5050565b600080825111610311576040517f08c379a0000000000000000000000000000000000000000000000000000000008152600401610308906108e8565b60405180910390fd5b600080836040516103229190610979565b908152602001604051809103902060405180608001604052908160008201805461034b906109bf565b80601f0160208091040260200160405190810160405280929190818152602001828054610377906109bf565b80156103c45780601f10610399576101008083540402835291602001916103c4565b820191906000526020600020905b8154815290600101906020018083116103a757829003601f168201915b505050505081526020016001820180546103dd906109bf565b80601f0160208091040260200160405190810160405280929190818152602001828054610409906109bf565b80156104565780601f1061042b57610100808354040283529160200191610456565b820191906000526020600020905b81548152906001019060200180831161043957829003601f168201915b5050505050815260200160028201805461046f906109bf565b80601f016020809104026020016040519081016040528092919081815260200182805461049b906109bf565b80156104e85780601f106104bd576101008083540402835291602001916104e8565b820191906000526020600020905b8154815290600101906020018083116104cb57829003601f168201915b505050505081526020016003820160009054906101000a900460ff161515151581525050905060008160000151510361052557600091505061052e565b80606001519150505b919050565b6000604051905090565b600080fd5b600080fd5b600080fd5b600080fd5b6000601f19601f8301169050919050565b7f4e487b7100000000000000000000000000000000000000000000000000000000600052604160045260246000fd5b61059a82610551565b810181811067ffffffffffffffff821117156105b9576105b8610562565b5b80604052505050565b60006105cc610533565b90506105d88282610591565b919050565b600067ffffffffffffffff8211156105f8576105f7610562565b5b61060182610551565b9050602081019050919050565b82818337600083830152505050565b600061063061062b846105dd565b6105c2565b90508281526020810184848401111561064c5761064b61054c565b5b61065784828561060e565b509392505050565b600082601f83011261067457610673610547565b5b813561068484826020860161061d565b91505092915050565b6000806000606084860312156106a6576106a561053d565b5b600084013567ffffffffffffffff8111156106c4576106c3610542565b5b6106d08682870161065f565b935050602084013567ffffffffffffffff8111156106f1576106f0610542565b5b6106fd8682870161065f565b925050604084013567ffffffffffffffff81111561071e5761071d610542565b5b61072a8682870161065f565b9150509250925092565b60006020828403121561074a5761074961053d565b5b600082013567ffffffffffffffff81111561076857610767610542565b5b6107748482850161065f565b91505092915050565b60008115159050919050565b6107928161077d565b82525050565b60006020820190506107ad6000830184610789565b92915050565b600082825260208201905092915050565b7f4e616d652063616e6e6f7420626520656d707479000000000000000000000000600082015250565b60006107fa6014836107b3565b9150610805826107c4565b602082019050919050565b60006020820190508181036000830152610829816107ed565b9050919050565b7f4d616e7566616374757265722063616e6e6f7420626520656d70747900000000600082015250565b6000610866601c836107b3565b915061087182610830565b602082019050919050565b6000602082019050818103600083015261089581610859565b9050919050565b7f515220636f64652063616e6e6f7420626520656d707479000000000000000000600082015250565b60006108d26017836107b3565b91506108dd8261089c565b602082019050919050565b60006020820190508181036000830152610901816108c5565b9050919050565b600081519050919050565b600081905092915050565b60005b8381101561093c578082015181840152602081019050610921565b60008484015250505050565b600061095382610908565b61095d8185610913565b935061096d81856020860161091e565b80840191505092915050565b60006109858284610948565b915081905092915050565b7f4e487b7100000000000000000000000000000000000000000000000000000000600052602260045260246000fd5b600060028204905060018216806109d757607f821691505b6020821081036109ea576109e9610990565b5b50919050565b60008190508160005260206000209050919050565b60006020601f8301049050919050565b600082821b905092915050565b600060088302610a527fffffffffffffffffffffffffffffffffffffffffffffffffffffffffffffffff82610a15565b610a5c8683610a15565b95508019841693508086168417925050509392505050565b6000819050919050565b6000819050919050565b6000610aa3610a9e610a9984610a74565b610a7e565b610a74565b9050919050565b6000819050919050565b610abd83610a88565b610ad1610ac982610aaa565b848454610a22565b825550505050565b600090565b610ae6610ad9565b610af1818484610ab4565b505050565b5b81811015610b1557610b0a600082610ade565b600181019050610af7565b5050565b601f821115610b5a57610b2b816109f0565b610b3484610a05565b81016020851015610b43578190505b610b57610b4f85610a05565b830182610af6565b50505b505050565b600082821c905092915050565b6000610b7d60001984600802610b5f565b1980831691505092915050565b6000610b968383610b6c565b9150826002028217905092915050565b610baf82610908565b67ffffffffffffffff811115610bc857610bc7610562565b5b610bd282546109bf565b610bdd828285610b19565b600060209050601f831160018114610c105760008415610bfe578287015190505b610c088582610b8a565b865550610c70565b601f198416610c1e866109f0565b60005b82811015610c4657848901518255600182019150602085019450602081019050610c21565b86831015610c635784890151610c5f601f891682610b6c565b8355505b6001600288020188555050505b50505050505056fea26469706673582212203aaab217274530669e8230d93ac97530f46dab8f017fc1b98f3f8a3b5915701464736f6c63430008130033",
  "immutableReferences": {},
  "source": "// SPDX-License-Identifier: GPL-3.0\r\n\r\npragma solidity ^0.8.0;\r\n\r\n/**\r\n * @title ProductRegistry\r\n * @dev Store & retrieve value in a variable\r\n * @custom:dev-run-script ./scripts/deploy_with_ethers.ts\r\n */\r\ncontract ProductRegistry {\r\n    struct Product {\r\n        string name;\r\n        string manufacturer;\r\n        string qrCode;\r\n        bool isAuthentic;\r\n    }\r\n\r\n    mapping(string => Product) private products;\r\n\r\n    function registerProduct(string memory _name, string memory _manufacturer, string memory _qrCode) public {\r\n        require(bytes(_name).length > 0, \"Name cannot be empty\");\r\n        require(bytes(_manufacturer).length > 0, \"Manufacturer cannot be empty\");\r\n        require(bytes(_qrCode).length > 0, \"QR code cannot be empty\");\r\n\r\n        Product memory product = Product({\r\n            name: _name,\r\n            manufacturer: _manufacturer,\r\n            qrCode: _qrCode,\r\n            isAuthentic: true\r\n        });\r\n\r\n        products[_qrCode] = product;\r\n    }\r\n\r\n    function verifyProduct(string memory _qrCode) public view returns (bool) {\r\n        require(bytes(_qrCode).length > 0, \"QR code cannot be empty\");\r\n\r\n        Product memory product = products[_qrCode];\r\n\r\n        if (bytes(product.name).length == 0) {\r\n            return false;\r\n        }\r\n\r\n        return product.isAuthentic;\r\n    }\r\n\r\n    function markProductAsFake(string memory _qrCode) public {\r\n        require(bytes(_qrCode).length > 0, \"QR code cannot be empty\");\r\n\r\n        Product storage product = products[_qrCode];\r\n\r\n        if (bytes(product.name).length > 0) {\r\n            product.isAuthentic = false;\r\n        }\r\n    }\r\n}\r\n",
  "sourcePath": "D:\\Chandigarh University\\Authentify\\Blockchain\\usingGanache\\contracts\\ProductRegistry.sol",
  "compiler": {
    "name": "solc",
    "version": "0.8.19+commit.7dd6d404.Emscripten.clang"
  },
  "schemaVersion": "3.4.13",
  "updatedAt": "2023-04-29T15:13:57.432Z",
  "devdoc": {
    "custom:dev-run-script": "./scripts/deploy_with_ethers.ts",
    "details": "Store & retrieve value in a variable",
    "kind": "dev",
    "methods": {},
    "title": "ProductRegistry",
    "version": 1
  },
  "userdoc": {
    "kind": "user",
    "methods": {},
    "version": 1
  }
}